{
	"data": {
		"bytecode": {
			"linkReferences": {},
			"object": "608060405234801561001057600080fd5b50610201806100206000396000f3fe6080604052600436106100985763ffffffff7c01000000000000000000000000000000000000000000000000000000006000350416630d4955e3811461009d5780630d7b2609146100c45780632265f284146100d95780632709275e146100ee5780635e2308d2146100ee578063650acd6614610103578063a778651514610118578063b82b84271461012d578063c5f530af14610142575b600080fd5b3480156100a957600080fd5b506100b2610157565b60408051918252519081900360200190f35b3480156100d057600080fd5b506100b261015f565b3480156100e557600080fd5b506100b2610166565b3480156100fa57600080fd5b506100b2610178565b34801561010f57600080fd5b506100b2610196565b34801561012457600080fd5b506100b261019b565b34801561013957600080fd5b506100b26101b3565b34801561014e57600080fd5b506100b26101ba565b6301e1338090565b6212750090565b60006101706101c9565b601002905090565b600060646101846101c9565b601e0281151561019057fe5b04905090565b600390565b600060646101a76101c9565b600f0281151561019057fe5b62093a8090565b6a084595161401484a00000090565b670de0b6b3a76400009056fea165627a7a72305820462d73a5f7620347523ebfc81310e060285fe2dfc4f314c1e0930e3aec1563b40029",
			"opcodes": "PUSH1 0x80 PUSH1 0x40 MSTORE CALLVALUE DUP1 ISZERO PUSH2 0x10 JUMPI PUSH1 0x0 DUP1 REVERT JUMPDEST POP PUSH2 0x201 DUP1 PUSH2 0x20 PUSH1 0x0 CODECOPY PUSH1 0x0 RETURN INVALID PUSH1 0x80 PUSH1 0x40 MSTORE PUSH1 0x4 CALLDATASIZE LT PUSH2 0x98 JUMPI PUSH4 0xFFFFFFFF PUSH29 0x100000000000000000000000000000000000000000000000000000000 PUSH1 0x0 CALLDATALOAD DIV AND PUSH4 0xD4955E3 DUP2 EQ PUSH2 0x9D JUMPI DUP1 PUSH4 0xD7B2609 EQ PUSH2 0xC4 JUMPI DUP1 PUSH4 0x2265F284 EQ PUSH2 0xD9 JUMPI DUP1 PUSH4 0x2709275E EQ PUSH2 0xEE JUMPI DUP1 PUSH4 0x5E2308D2 EQ PUSH2 0xEE JUMPI DUP1 PUSH4 0x650ACD66 EQ PUSH2 0x103 JUMPI DUP1 PUSH4 0xA7786515 EQ PUSH2 0x118 JUMPI DUP1 PUSH4 0xB82B8427 EQ PUSH2 0x12D JUMPI DUP1 PUSH4 0xC5F530AF EQ PUSH2 0x142 JUMPI JUMPDEST PUSH1 0x0 DUP1 REVERT JUMPDEST CALLVALUE DUP1 ISZERO PUSH2 0xA9 JUMPI PUSH1 0x0 DUP1 REVERT JUMPDEST POP PUSH2 0xB2 PUSH2 0x157 JUMP JUMPDEST PUSH1 0x40 DUP1 MLOAD SWAP2 DUP3 MSTORE MLOAD SWAP1 DUP2 SWAP1 SUB PUSH1 0x20 ADD SWAP1 RETURN JUMPDEST CALLVALUE DUP1 ISZERO PUSH2 0xD0 JUMPI PUSH1 0x0 DUP1 REVERT JUMPDEST POP PUSH2 0xB2 PUSH2 0x15F JUMP JUMPDEST CALLVALUE DUP1 ISZERO PUSH2 0xE5 JUMPI PUSH1 0x0 DUP1 REVERT JUMPDEST POP PUSH2 0xB2 PUSH2 0x166 JUMP JUMPDEST CALLVALUE DUP1 ISZERO PUSH2 0xFA JUMPI PUSH1 0x0 DUP1 REVERT JUMPDEST POP PUSH2 0xB2 PUSH2 0x178 JUMP JUMPDEST CALLVALUE DUP1 ISZERO PUSH2 0x10F JUMPI PUSH1 0x0 DUP1 REVERT JUMPDEST POP PUSH2 0xB2 PUSH2 0x196 JUMP JUMPDEST CALLVALUE DUP1 ISZERO PUSH2 0x124 JUMPI PUSH1 0x0 DUP1 REVERT JUMPDEST POP PUSH2 0xB2 PUSH2 0x19B JUMP JUMPDEST CALLVALUE DUP1 ISZERO PUSH2 0x139 JUMPI PUSH1 0x0 DUP1 REVERT JUMPDEST POP PUSH2 0xB2 PUSH2 0x1B3 JUMP JUMPDEST CALLVALUE DUP1 ISZERO PUSH2 0x14E JUMPI PUSH1 0x0 DUP1 REVERT JUMPDEST POP PUSH2 0xB2 PUSH2 0x1BA JUMP JUMPDEST PUSH4 0x1E13380 SWAP1 JUMP JUMPDEST PUSH3 0x127500 SWAP1 JUMP JUMPDEST PUSH1 0x0 PUSH2 0x170 PUSH2 0x1C9 JUMP JUMPDEST PUSH1 0x10 MUL SWAP1 POP SWAP1 JUMP JUMPDEST PUSH1 0x0 PUSH1 0x64 PUSH2 0x184 PUSH2 0x1C9 JUMP JUMPDEST PUSH1 0x1E MUL DUP2 ISZERO ISZERO PUSH2 0x190 JUMPI INVALID JUMPDEST DIV SWAP1 POP SWAP1 JUMP JUMPDEST PUSH1 0x3 SWAP1 JUMP JUMPDEST PUSH1 0x0 PUSH1 0x64 PUSH2 0x1A7 PUSH2 0x1C9 JUMP JUMPDEST PUSH1 0xF MUL DUP2 ISZERO ISZERO PUSH2 0x190 JUMPI INVALID JUMPDEST PUSH3 0x93A80 SWAP1 JUMP JUMPDEST PUSH11 0x84595161401484A000000 SWAP1 JUMP JUMPDEST PUSH8 0xDE0B6B3A7640000 SWAP1 JUMP INVALID LOG1 PUSH6 0x627A7A723058 KECCAK256 0x46 0x2d PUSH20 0xA5F7620347523EBFC81310E060285FE2DFC4F314 0xc1 0xe0 SWAP4 0xe GASPRICE 0xec ISZERO PUSH4 0xB4002900 "
		},
		"gasEstimates": {
			"creation": {
				"codeDepositCost": "102600",
				"executionCost": "153",
				"totalCost": "102753"
			},
			"external": {
				"contractCommission()": "324",
				"maxDelegatedRatio()": "271",
				"maxLockupDuration()": "184",
				"minLockupDuration()": "206",
				"minSelfStake()": "360",
				"unlockedRewardRatio()": "346",
				"validatorCommission()": "390",
				"withdrawalPeriodEpochs()": "294",
				"withdrawalPeriodTime()": "338"
			}
		},
		"methodIdentifiers": {
			"contractCommission()": "2709275e",
			"maxDelegatedRatio()": "2265f284",
			"maxLockupDuration()": "0d4955e3",
			"minLockupDuration()": "0d7b2609",
			"minSelfStake()": "c5f530af",
			"unlockedRewardRatio()": "5e2308d2",
			"validatorCommission()": "a7786515",
			"withdrawalPeriodEpochs()": "650acd66",
			"withdrawalPeriodTime()": "b82b8427"
		}
	},
	"abi": [
		{
			"constant": true,
			"inputs": [],
			"name": "maxLockupDuration",
			"outputs": [
				{
					"name": "",
					"type": "uint256"
				}
			],
			"payable": false,
			"stateMutability": "view",
			"type": "function"
		},
		{
			"constant": true,
			"inputs": [],
			"name": "minLockupDuration",
			"outputs": [
				{
					"name": "",
					"type": "uint256"
				}
			],
			"payable": false,
			"stateMutability": "view",
			"type": "function"
		},
		{
			"constant": true,
			"inputs": [],
			"name": "maxDelegatedRatio",
			"outputs": [
				{
					"name": "",
					"type": "uint256"
				}
			],
			"payable": false,
			"stateMutability": "view",
			"type": "function"
		},
		{
			"constant": true,
			"inputs": [],
			"name": "contractCommission",
			"outputs": [
				{
					"name": "",
					"type": "uint256"
				}
			],
			"payable": false,
			"stateMutability": "view",
			"type": "function"
		},
		{
			"constant": true,
			"inputs": [],
			"name": "unlockedRewardRatio",
			"outputs": [
				{
					"name": "",
					"type": "uint256"
				}
			],
			"payable": false,
			"stateMutability": "view",
			"type": "function"
		},
		{
			"constant": true,
			"inputs": [],
			"name": "withdrawalPeriodEpochs",
			"outputs": [
				{
					"name": "",
					"type": "uint256"
				}
			],
			"payable": false,
			"stateMutability": "view",
			"type": "function"
		},
		{
			"constant": true,
			"inputs": [],
			"name": "validatorCommission",
			"outputs": [
				{
					"name": "",
					"type": "uint256"
				}
			],
			"payable": false,
			"stateMutability": "view",
			"type": "function"
		},
		{
			"constant": true,
			"inputs": [],
			"name": "withdrawalPeriodTime",
			"outputs": [
				{
					"name": "",
					"type": "uint256"
				}
			],
			"payable": false,
			"stateMutability": "view",
			"type": "function"
		},
		{
			"constant": true,
			"inputs": [],
			"name": "minSelfStake",
			"outputs": [
				{
					"name": "",
					"type": "uint256"
				}
			],
			"payable": false,
			"stateMutability": "view",
			"type": "function"
		}
	]
}